:020000040800F2
:10000000A0F40120690200084128000843280008E4
:10001000472800084B2800084F280008000000006F
:10002000000000000000000000000000552800084B
:10003000532800080000000057280008592800082D
:10004000830200088302000883020008830200087C
:100050008302000883020008892800089B28000802
:10006000AD280008BF280008D12800088302000836
:100070008302000883020008830200087928000830
:10008000830200088302000883020008830200083C
:10009000830200088302000883020008E3280008A6
:1000A000830200088302000883020008830200081C
:1000B000830200088302000883020008830200080C
:1000C00083020008830200088302000883020008FC
:1000D00071280008812800088302000883020008B4
:1000E0003529000883020008830200088302000803
:1000F00083020008830200088302000883020008CC
:1001000083020008612800088302000883020008B7
:1001100083020008830200088302000883020008AB
:10012000830200088302000883020008692800088F
:10013000830200088302000883020008830200088B
:10014000830200088302000883020008830200087B
:10015000830200088302000883020008830200086B
:10016000830200088302000883020008830200085B
:10017000830200088302000883020008830200084B
:10018000830200088302000800F002F800F05CF827
:100190000AA090E8000C82448344AAF10107DA45E2
:1001A00001D100F051F8AFF2090EBAE80F0013F0D8
:1001B000010F18BFFB1A43F0010318470C78000029
:1001C0003C7800000A444FF0000C10F8013B13F09B
:1001D000070408BF10F8014B1D1108BF10F8015BA0
:1001E000641E05D010F8016B641E01F8016BF9D193
:1001F00013F0080F1EBF10F8014BAD1C0C1B09D1EA
:100200006D1E58BF01F801CBFAD505E014F8016B5B
:1002100001F8016B6D1EF9D59142D6D370470000ED
:100220000023002400250026103A28BF78C1FBD8FF
:10023000520728BF30C148BF0B6070471FB507F099
:10024000BEFB1FBD10B510BD07F083FB1146FFF7C5
:10025000F5FF02F01DFF07F0A1FB03B4FFF7F2FF6B
:1002600003BC07F0A5FB0000094880470948004788
:10027000FEE7FEE7FEE7FEE7FEE7FEE7FEE7FEE756
:10028000FEE7FEE704480549054A064B70470000B3
:10029000B303000889010008A0EE0120A0F40120AA
:1002A000A0F00120A0F001200CB5002001900090EA
:1002B0008148006840F480307F49086000BF7E4874
:1002C000006800F4003000900198401C01900098F4
:1002D00018B90198B0F5C06FF1D17748006810F4F3
:1002E000003F02D00120009001E000200090009823
:1002F000012845D170484030006840F080506E4978
:10030000403108606D48006840F440406B49086027
:100310006948083000686849083108600846006884
:1003200040F4004008600846006840F4A0500860AF
:100330006348091F0860081F006840F08070091FAB
:10034000086000BF5C48006810F0007FFAD040F2FF
:1003500005605C49086058480830006820F00300D8
:100360005549083108600846006840F002000860FE
:1003700000BF51480830006800F00C000828F8D190
:100380004D480830006820F400004B4908310860EF
:100390004D484949843108604748006840F0806012
:1003A0004549086000BF4448006810F0006FFAD06B
:1003B0000CBD10B54548006840F470004349086022
:1003C0003D48006840F001003B49086000203A4980
:1003D00008310860384800683D49084036490860DF
:1003E0003C48091D0860081F006820F48020091F90
:1003F0000860002030490C310860FFF755FF4FF0CE
:10040000006032498039086010BD70B500200022BC
:10041000022300240221284D08352D6805F00C0028
:1004200020B1042806D0082834D107E02A4D2B4EED
:10043000356033E02A4D294E35602FE01E4D2D1DCD
:100440002D68C5F380541C4D2D1D2D6805F03F010E
:1004500054B1234DB5FBF1F5174E361D3668C6F382
:10046000881605FB06F209E01B4DB5FBF1F5124EAF
:10047000361D3668C6F3881605FB06F20E4D2D1D97
:100480002D68C5F301456D1C6B00B2FBF3F5134EEF
:10049000356003E0104D114E356000BF00BF064DC2
:1004A00008352D68C5F303150E4E705D0B4D2D6894
:1004B000C5400A4E356070BD0038024000700040F3
:1004C00008544007003C0240C043002088ED00E093
:1004D000FFFFF6FE103000240024F400000000208E
:1004E00000127A000400002010B501F051F910BD8F
:1004F0002DE9F04106460027F848056801E0F74875
:10050000056815F0450FFAD015F0040F06D0032743
:10051000042006F0FFFB3846BDE8F08115F0010F1E
:1005200005D00127012006F0F5FB3846F4E706F078
:1005300072FBB04202D010273846EDE740F2FF5080
:1005400006F0E8FB002006F06BFB0446E44804429A
:1005500001D13846E0E714F0004F01D01C20DBE762
:1005600014F0804F01D00920D6E714F0005F01D0CD
:100570000A20D1E714F0805F01D00B20CCE714F003
:10058000006F01D00C20C7E714F0806F01D00D2060
:10059000C2E714F0807F01D00E20BDE714F4000FF5
:1005A00001D00F20B8E714F4800F01D01020B3E77A
:1005B00014F4001F01D01120AEE714F4801F01D005
:1005C0001220A9E714F4002F01D01320A4E714F49B
:1005D000802F01D014209FE714F4003F01D0152094
:1005E0009AE714F4803F01D0162095E714F4004FE9
:1005F00001D0172090E714F4804F01D018208BE72A
:1006000014F4005F01D0192086E714F0080F01D020
:100610001A2081E738467FE72DE9FC4107460D4661
:10062000002600240020009001900820AD490860B9
:1006300010204860402088600020C8604FF480602F
:100640000861084606F0CBFA1020FFF751FF044678
:1006500014B12046BDE8FC81A34800880004A149EC
:10066000086037204860402088600020C8604FF450
:1006700080600861084606F0B2FA3720FFF738FFBD
:1006800004460CB12046E5E74FF0FF30974908607B
:1006900008204860302088600220C860002008617F
:1006A00001204861084606F0C6FA00208D4908601E
:1006B00033204860402088600020C8604FF480608C
:1006C0000861084606F08BFA3320FFF711FF044655
:1006D0000CB12046BEE709E04FF4001006F00FFB16
:1006E00020B106F0CEFA4DF82600761C7B48006853
:1006F00040F22A610842EFD0082006F000FB28B142
:10070000082006F007FB04242046A3E7022006F099
:10071000F6FA28B1022006F0FDFA0224204699E7F5
:10072000202006F0ECFA28B1202006F0F3FA062487
:1007300020468FE74FF4007006F0E1FA30B14FF435
:10074000007006F0E7FA0724204683E740F2FF50E6
:1007500006F0E0FA00980006009901F47F4140EAB3
:100760000120009901F47F0140EA1120009940EA3C
:100770001160686001980006019901F47F4140EA28
:100780000120019901F47F0140EA1120019940EA1A
:100790001160286020465DE77CB5054600240020F6
:1007A0000090019006F03CFA10F0007F02D00E2479
:1007B00020467CBD4C49098888B26946FFF72CFF6A
:1007C00004460CB12046F4E7012D35D1019810F410
:1007D000802F2ED04448008800044249086037200A
:1007E0004860402088600020C860A8020861084670
:1007F00006F0F5F93720FFF77BFE04460CB12046E2
:10080000D7E702203749086006204860402088600A
:100810000020C8604FF480600861084606F0DFF9E8
:100820000620FFF765FE04460CB12046C1E72046CE
:10083000BFE725242046BCE7019810F4803F2FD065
:100840002948008800042749086037204860402074
:1008500088600020C8604FF480600861084606F098
:10086000BEF93720FFF744FE04460CB12046A0E74E
:1008700000201C4908600620486040208860002055
:10088000C8604FF480600861084606F0A8F90620A9
:10089000FFF72EFE04460CB120468AE7204688E783
:1008A0002524204685E770B50446002510480068D9
:1008B000032802D12725284670BD0D48006838B1AD
:1008C0000B480068012803D009480068022838D185
:1008D000B4F5805F0ED127252846EDE7342C014082
:1008E00008E0FFFDB002002018000020C402002034
:1008F00014000020B4F5006F13D10120FFF74CFF66
:100900000546F5B90020FD49087508604860886013
:100910004FF40060C86000200861084606F035F911
:100920000FE00020FFF738FF054655B90020F349D6
:100930000875086048608860C8600861084606F06D
:1009400024F92846B8E770B504460025EC48046051
:100950000720EB494860402088600020C8604FF4C1
:1009600080600861084606F03AF90720FFF7C0FDED
:100970000546284670BDF0B5014600200022E14B37
:100980001B7881F85630E04B1B88A1F85430DF4BC0
:100990001B681A0E93090B70C2F383034B7002F0AD
:1009A00003038B70D94B1B68C3F30742CA70D74B44
:1009B0001B88C3F307220A71D44B1A784A715B680B
:1009C0001A0E1301CB80D14B5B68C3F30742CB886F
:1009D00043EA1213CB8002F00F030B72CB4B9B88C0
:1009E000C3F30722D3094B72C2F380138B72C2F395
:1009F0004013CB72C2F300130B7300234B73C14B34
:100A00001B681BB1BF4B1B68012B4FD193071B0DFC
:100A10000B61BE4B1A790B6943EA82030B61BB4B36
:100A20009B681A0E0B6943EA92130B61C2F3C2036F
:100A30000B7502F007034B75B44B9B68C3F3074279
:100A400053098B75C2F38203CB7593075B0F0B764B
:100A5000AE4B1B89C3F307220B7E43EAD2130B76FE
:100A60000B695B1C0024C1E912340B7ED1E91265CD
:100A70009B1C012404FA03F3DC17A6FB037C05FB93
:100A800003C306FB0433C1E912730C7A0123A340AC
:100A90000B650027D1E912560B6DA5FB034C06FB35
:100AA00003C305FB0733C1E9124323E0954B1B68E1
:100AB000022B1FD1954B1A7993069B0A0B61934B1E
:100AC0009B681A0E0B6943EA02230B618F4B9B68EC
:100AD000C3F307420B6913430B618C4B1B89C3F3B0
:100AE00007220B695B1CDB040024C1E912344FF4BC
:100AF00000730B65C2F3801301F8193F93065B0E78
:100B00004B70824B1A7A4B7843EAD2134B7002F047
:100B10007F038B707D4BDB681A0ED309CB70C2F359
:100B200041130B71C2F382034B7193071B0F8B713F
:100B3000764BDB68C3F307428B7943EA92138B71E0
:100B4000C2F34013CB7100230B7202F001034B720E
:100B50006E4B9B89C3F30722D3098B72C2F38013B8
:100B6000CB72C2F340130B73C2F300134B73C2F387
:100B700081038B7302F00303CB73644B1A7B53081E
:100B80000B7401234B74624B1B681A0ECA74A1F1DB
:100B900019015F4B1B68C3F307424FEA0224CC855F
:100BA0005B4B1B88C3F30722CB8D43EA0203CB8543
:100BB000574B1A784FEA02640C635B684FEA136282
:100BC0000B6B43EA02440C63514B5B68C3F307426F
:100BD0000B6B43EA02240C634D4B9B88C3F3072243
:100BE0000B6B43EA02030B63494B1A794FF0340352
:100BF0005A54474B9B684FEA13624FF035035A54DF
:100C0000434B9B68C3F307424FEA02648C63404B3B
:100C10001B89C3F307228B6B43EA02448C633C4B72
:100C20001A7A8B6B43EA02248C63394BDB684FEAF8
:100C300013628B6B43EA02038B63354BDB68C3F3B0
:100C400007424FF03C035B5C43EA12144FF03C0355
:100C50005C544FEA02734FEA1354CC872C4B9B89A8
:100C6000C3F30722CB8F43EA0203CB87284B1A7BBF
:100C70004FEA52044FF040035C544FF001044FF030
:100C800041035C54F0BD70B500252248046801E0C2
:100C90002048046814F0450FFAD014F0040F05D072
:100CA0000325042006F036F8284670BD14F0010F25
:100CB00005D00125012006F02DF82846F5E740F281
:100CC000FF5006F027F82846EFE72DE9F0410646E9
:100CD0000F464FF000080F48056801E00D48056811
:100CE00015F0450FFAD015F0040F15D04FF003089A
:100CF000042006F00FF84046BDE8F081980200207D
:100D0000B002002014000020180000201002002073
:100D100020020020342C014015F0010F06D04FF0C6
:100D20000108012005F0F6FF4046E5E705F073FFF6
:100D3000B04203D04FF010084046DDE740F2FF50CC
:100D400005F0E8FF002005F06BFF044614F4604F47
:100D500003D1200C38804046CEE714F4005F01D068
:100D60001320C9E714F4804F01D01020C4E714F415
:100D7000004F01D00F20BFE74046BDE738B5002443
:100D80000120009005F025FF10B92524204638BD2C
:100D9000FE480068042828D00020FD490860022091
:100DA0004860C02088600020C8604FF480600861FF
:100DB000084605F014FFFFF766FF04460CB1204615
:100DC000E5E7002005F02CFFF2490860042005F05B
:100DD00027FFF0494860082005F022FFED498860B0
:100DE0000C2005F01DFFEB49C860E848006858B1C9
:100DF000E6480068012807D0E4480068062803D0C8
:100E0000E2480068022816D10020E149086003206A
:100E10004860402088600020C8604FF4806008610E
:100E2000084605F0DCFE69460320FFF74EFF044646
:100E30000CB12046ABE7D548006804282ED0BDF899
:100E40000000D5490860BDF800000004D0490860E2
:100E500009204860C02088600020C8604FF480608E
:100E60000861084605F0BBFEFFF70DFF04460CB114
:100E700020468CE7002005F0D3FEC8490860042016
:100E800005F0CEFEC5494860082005F0C9FEC349FB
:100E900088600C2005F0C4FEC049C86000242046CC
:100EA00075E770B50025BE48046801E0BC480468D9
:100EB00014F0450FFAD014F0040F05D003250420D8
:100EC00005F028FF284670BD40F2FF5005F022FFD4
:100ED0002846F8E770B500264FF48035B04804681E
:100EE00002E06D1EAE48046814F0450F01D1002DDC
:100EF000F7D115B114F0040F05D00326042005F036
:100F000009FF304670BD14F0400F05D00026402088
:100F100005F000FF3046F5E73046F3E770B50025F1
:100F20004FF4803400E0641E24B1802005F0E7FE19
:100F30000028F8D014B90325284670BD40F2FF50B0
:100F400005F0E8FE2846F8E7F8B5002000900025F7
:100F500000240026002776209249087500200860AA
:100F600048608860C8600861084605F00EFE0320EE
:100F700005F02BFE012005F025FE002084490860C5
:100F800048608860C8604FF480600861084605F0DA
:100F900026FEFFF7C3FF00909DF8000010B19DF8FA
:100FA0000000F8BD4FF4D57079490860082048600A
:100FB000402088600020C8604FF4806008610846C7
:100FC00005F00DFEFFF786FF00909DF8000020B9A8
:100FD00001206E490860870712E000206C49086014
:100FE00037204860402088600020C8604FF480604F
:100FF0000861084605F0F3FD3720FFF779FA009005
:101000000020634908603720486040208860002045
:10101000C8604FF480600861084605F0E0FD3720A5
:10102000FFF766FA00909DF80000002851D13BE0E0
:101030000020574908603720486040208860002021
:10104000C8604FF480600861084605F0C8FD37208D
:10105000FFF74EFA00909DF8000010B19DF80000D7
:101060009FE7514838434A4908602920486040209A
:1010700088600020C8604FF480600861084605F071
:10108000AEFDFFF70EFF00909DF8000010B19DF837
:10109000000086E7002005F0C3FD0546012080EA38
:1010A000D57080F00106641C1EB94FF6FF708442B3
:1010B000BED34FF6FF70844204D31B2000909DF8EE
:1010C00000006EE705F08040050002D002202F49A5
:1010D00008609DF8000064E708B50020009000F06B
:1010E0009DFB05F047FDFFF72FFF00909DF80000E6
:1010F00010B19DF8000008BDFFF740FE00909DF87C
:10110000000010B19DF80000F5E7002025490875A2
:10111000086048608860C8600861084605F035FDD1
:101120002248FFF728FC00909DF8000030B91F49C5
:10113000B1F854100804FFF706FC00909DF8000079
:1011400020B94FF40060FFF7AEFB00909DF800005F
:10115000D1E770B50446002514B92625284670BD90
:101160000D48008800040A4908600D2048604020AE
:1011700088600020C8604FF480600861084605F070
:101180002EFD0D20FFF7B4F9054611E014000020F4
:10119000B0020020200200201800002010020020D1
:1011A000342C0140980200200000108040020020F2
:1011B0000DB12846D3E7002005F032FD2060284617
:1011C000CDE708B5012000900121F84805F094FE14
:1011D000012801D0002000909DF8000008BD08B54E
:1011E00000200090FFF7EDFF012809D16846FFF7C6
:1011F000B0FF08B1FF2008BD0098C0F34320FAE714
:10120000FF20F8E710B50424FFF7E9FF0446042C9B
:1012100001D1002010BDFF2C01D10220FAE70120EE
:10122000F8E710B50024002005F0CFFC204610BDE3
:1012300070B5044600260025002005F0F1FC10F0F2
:10124000007F02D00E26304670BD4020D84908608D
:1012500010204860402088600020C8604FF4806003
:101260000861084605F0BBFC1020FFF741F906466F
:101270000EB13046E8E7CF4800880004CC4908604A
:1012800037204860402088600020C8604FF48060AC
:101290000861084605F0A3FC3720FFF729F9064648
:1012A0000EB13046D0E74FF0FF30C3490860402010
:1012B0004860602088600220C8600020086101202A
:1012C0004861084605F0B7FC0020B94908600D20C8
:1012D0004860402088600020C8604FF4806008614A
:1012E000084605F07CFC0D20FFF702F906460EB11A
:1012F0003046A9E70EE04FF4004005F000FD48B18C
:10130000002504E005F0BDFC44F825006D1C082D07
:10131000F8D32034A948006840F22A610842EAD094
:10132000082005F0ECFC28B1082005F0F3FC0426A9
:10133000304689E7022005F0E2FC28B1022005F0E2
:10134000E9FC022630467FE7202005F0D8FC28B1D2
:10135000202005F0DFFC0626304675E74FF40070CC
:1013600005F0CDFC30B14FF4007005F0D3FC07263A
:10137000304669E74FF0FF3504E005F082FC20605D
:10138000241D6D1E4FF4001005F0B9FC08B1002DAE
:10139000F3D140F2FF5005F0BDFC304654E770B584
:1013A0000446002600258648FFF742FF06460EB198
:1013B000304670BD824800788509257080480078E5
:1013C000C0F3401565707E488578280260807C48AF
:1013D000C578608828436080794805792806606070
:1013E00077484579606840EA0540606074488579CF
:1013F000606840EA052060607148C57960682843EC
:1014000060606F48057A2572457A6572807A0509B1
:10141000A5726B48C57A2802A0816948057BA0891E
:101420002843A0816648407B8508A5736448407BBB
:1014300000F00305E5733046BBE72DE9F0410746B0
:101440000D461446002600205E4908705E4908607B
:101450005E4908605949083908605D4800680228FB
:1014600000D06D025248046010205149486040206D
:1014700088600020C8604FF480600861084605F06D
:10148000AEFB1020FFF734F8064616B13046BDE833
:10149000F0814FF0FF3048490860084644609020D2
:1014A00088600220C8600020086101204861084669
:1014B00005F0C1FB3E48056011203D4948604020D1
:1014C00088600020C8604FF480600861084605F01D
:1014D00086FB1120FFF70CF806460EB13046D6E722
:1014E000012140F22A3005F0F9FB012005F0F2FB62
:1014F0002146384600F030FA3046C8E72DE9F04181
:1015000080460D4614461E46002700202D490870CF
:101510002D49086001202D4908600020274908391D
:1015200008602B480068022800D06D022048046043
:1015300010201F494860402088600020C8604FF498
:1015400080600861084605F04AFB1020FEF7D0FFD6
:10155000074617B13846BDE8F0814FF0FF30164915
:10156000086006FB04F04860902088600220C86094
:101570000020086101204861084605F05CFB0C482A
:10158000056012200A494860402088600020C86039
:101590004FF480600861084605F021FB1220FEF739
:1015A000A7FF0746B7B13846D5E700000004024060
:1015B000B002002018000020C4020020342C01409A
:1015C0003002002020000020240000201C00002009
:1015D00014000020012140F22A3005F07FFB012099
:1015E00005F078FB06FB04F1404600F0B5F93846FB
:1015F000B1E710B5002400205E4908600C20486067
:10160000402088600020C8604FF480600861084670
:1016100005F0E5FA0C20FEF76BFF0446204610BDEE
:1016200070B500254FF4B05400E0641E52480068C5
:1016300038B95248006820B95148007808B9002CE0
:10164000F3D100204C490860441E00E0641E4D4860
:10165000006810F4005F01D0002CF7D14A48006800
:10166000012805D1FFF7C5FF05460020464908605F
:101670000CB905B9042540F2FF5005F04BFB40487A
:10168000007810B13E48007870BD2846FCE73D4820
:10169000006810F4405F01D0012070470020FCE793
:1016A00010B54FF4807005F039FB50B1002034497B
:1016B00008704FF4807005F03CFB01202F49086052
:1016C00037E0022005F02AFB30B1022005F031FBA3
:1016D00002202B4908702CE0082005F01FFB30B1D8
:1016E000082005F026FB04202549087021E0202071
:1016F00005F014FB30B1202005F01BFB062020492B
:10170000087016E0102005F009FB30B1102005F03C
:1017100010FB05201A4908700BE04FF4007005F02B
:10172000FDFA30B14FF4007005F003FB07201449B7
:10173000087000214CF23A3005F0D0FA10480078D9
:1017400010BD10B51148006810F0C05F08D001202E
:10175000094908604FF0C2510C48583004F092FF1C
:1017600010BD0146002002E04910421CD0B2012900
:10177000FAD17047B0020020280000202400002089
:1017800020000020342C01401C0000200064024096
:101790001CB5002005F016FA002005F016FA05F039
:1017A000E9F900214FF4006004F01EFD0022082139
:1017B0008A4805F0CAFB00220921884805F0C5FBCC
:1017C00000220A21854805F0C0FB00220B21834836
:1017D00005F0BBFB00220C21804805F0B6FB00227F
:1017E00002217F4805F0B1FB4FF4706000900020AB
:1017F0008DF804008DF807006946784805F01AFB5B
:10180000042000906946764805F014FB4FF48050A0
:1018100000906946714805F00DFB1CBD1CB5012107
:101820000E2004F09DFC0C2208216C4805F08DFB75
:101830000C220921694805F088FB0C220A2167481F
:1018400005F083FB0C220B21644805F07EFB0C2283
:101850001146624805F079FB0C220221604805F030
:1018600074FB4FF47060009001208DF80500022099
:101870008DF8040000208DF8060001208DF8070087
:101880006946564805F0D6FA042000906946544847
:1018900005F0D0FA4FF48050009000208DF807003A
:1018A00069464E4805F0C6FA0120009000208DF8E8
:1018B000040001208DF8070069464A4805F0BAFA8D
:1018C0000121C80204F090FC0121880504F048FCC5
:1018D0001CBD30B58FB004460D464FF0FA5142485A
:1018E00004F0D0FE0021404804F054FE3E4804F0CD
:1018F00075FD4FF0006000903C480190029440203C
:1019000003900020049005904FF4806006908000C2
:10191000079080000890002009904FF440300A9012
:1019200004200B9003200C904FF400000D908010C9
:101930000E9069462C4804F0F3FD012210212A483C
:1019400004F0B4FE2021284804F03AFE0121264884
:1019500004F020FE0FB030BD30B58FB004460D4608
:101960004FF0FA51204804F08DFE00211E4804F08B
:1019700011FE1D4804F032FD4FF0006000901B483E
:101980000190029400200390049005904FF4806031
:1019900006908000079080000890002009904FF486
:1019A00040300A9004200B9003200C904FF400006C
:1019B0000D9080100E9069460B4804F0B1FD012295
:1019C0001021094804F072FE2021074804F0F8FDB8
:1019D0000121054804F0DEFD0FB030BD00080240D3
:1019E000000C02400004024058640240802C014078
:1019F00070B504460D464FF4007229462046FFF7A5
:101A00001CFD20490870FFF70BFE1E49087000BF3F
:101A1000FFF7F8FB0028FBD1012070BD70B504462C
:101A20000D4608239A0129462046FFF767FD154910
:101A30000870FFF7F5FD1349087000BFFFF7E2FBE0
:101A40000028FBD1012070BD70B504460D4604EBA3
:101A5000C40101EBC4110C4A02EB810101F1240025
:101A60004FF400722946FFF7E8FC06490870FFF7BB
:101A7000D7FD0449087000BFFFF7C4FB0028FBD165
:101A8000012070BD2C000020DC02002070B5002574
:101A900009E0002005EBC50101EBC511FE4A02F883
:101AA0002100681CC5B20F2DF3DB0020FB49087034
:101AB000FB4C00212046FFF79BFF08B9002070BDBA
:101AC0002078EB280BD194F8FE01552807D194F823
:101AD000FF01AA2803D10020F249088012E094F8FF
:101AE000C701F049088094F8C601097800EB01208D
:101AF000EC490880084601882046FFF779FF08B9BD
:101B00000020DCE7267BE07A00EB062086B2B6F503
:101B1000007F01D00020D2E7607BE3490870E07BC2
:101B2000E2490880A07B097800EB0120DF490880AA
:101B3000207CDF490870A07CDE490880607C097841
:101B400000EB0120DB4908800846008810B901201D
:101B5000D2490870E07DD8490880A07D097800EB63
:101B60000120D5490880CD48007820B1084600887A
:101B700030B10020A3E7D048008808B900209EE7D4
:101B8000C8480088C94909880844CC490860C34846
:101B90000078E8B908460168C5480078C64A128846
:101BA00000FB0210C6490880C249098840F2FF12B2
:101BB00002EB4110C11700EBD1514912C14A11800B
:101BC000BF480088114609880844BF49086035E0CD
:101BD00004F12404E078BD490860A078096800EBAE
:101BE0000120BA4908606078096800EB0120B74914
:101BF00008602078096800EB0120B4490860E07AA9
:101C0000B3490860A07A096800EB0120B049086078
:101C1000607A096800EB0120AD490860207AA4F1E0
:101C20002404096800EB0120A9490860A74800685E
:101C3000A249096801EB4000A34908604FF0010088
:101C40003DE7F8B5044604EBC40000EBC41092492C
:101C500001EB8000007D94490978884211DA04EB99
:101C6000C40000EBC4108C4901EB8000C068401C2C
:101C700004EBC40101EBC411874A02EB8101C86186
:101C800091E0002004EBC40101EBC411824A02EB95
:101C90008101087504EBC40000EBC410114601EB90
:101CA000800000696FF0704101EAD0108349096833
:101CB000451804EBC40000EBC410114601EB800092
:101CC000006AA8420ED029462046FFF7BDFE08B99B
:101CD0000020F8BD04EBC40000EBC4106E4901EB1A
:101CE0008000056204EBC40000EBC4106A4901EBFC
:101CF000800000694006C50D2E4604EBC40000EBD1
:101D0000C41001EB80002430805D8DF8000004EBEE
:101D1000C40000EBC41001EB800024303546711C78
:101D2000405C8DF8010004EBC40000EBC4105A497C
:101D300001EB80002430B11C405C8DF8020004EB04
:101D4000C40000EBC410544901EB80002430F11CA6
:101D5000405C00F00F008DF80300009810F1100FA8
:101D60001FD204EBC40101EBC4114B4A02EB810109
:101D70000098086104EBC40000EBC410114601EBAD
:101D800080000069871E504800684749097807FBB2
:101D9000010004EBC40101EBC41102EB8101C86135
:101DA00001E0002095E7012093E72DE9F04104468A
:101DB00004EBC40000EBC410374901EB8000007D48
:101DC00039490978884211DA04EBC40000EBC410E9
:101DD000314901EB8000C068401C04EBC40101EBF9
:101DE000C4112D4A02EB8101C86195E0002004EB8B
:101DF000C40101EBC411284A02EB8101087504EB10
:101E0000C40000EBC410114601EB80000069C0F370
:101E100007202A490988084485B204EBC40000EB76
:101E2000C410114601EB8000006AA8420FD0294679
:101E30002046FFF709FE10B90020BDE8F08104EB51
:101E4000C40000EBC410144901EB8000056204EBF0
:101E5000C40000EBC410104901EB800000690006CB
:101E6000C50D2E4604EBC40000EBC41001EB80004E
:101E700024303546711C475C04EBC40000EBC410F1
:101E8000054901EB80002430805D00EB072087B21C
:101E90004FF6F07087421DE0DC0200203000002089
:101EA00030290020320000203400002036000020BD
:101EB000380000203A0000203C00002040000020B4
:101EC000480000204A000020440000204C00002070
:101ED000500000201EDA04EBC40000EBC41001EB3C
:101EE0008000076104EBC40000EBC41001EB80002C
:101EF0000069A0F10208FD480068FD49097808FB67
:101F0000010004EBC40101EBC411FA4A02EB8101A8
:101F1000C86101E0002090E701208EE770B504461B
:101F20000D4604EBC40000EBC410F24901EB800045
:101F3000C06970B9F048007828B92046FFF735FF2E
:101F400038B9002070BD2046FFF77BFE08B900209D
:101F5000F8E704EBC40000EBC410E64901EB800095
:101F6000C06908B90020EDE704EBC40000EBC41021
:101F7000E04901EB8000C06904EBC40101EBC4112E
:101F8000DC4A02EB8101C860002004EBC40101EBD4
:101F9000C41102EB8101C86104EBC40000EBC41062
:101FA00002EB8000C1682846FFF722FD08B9002037
:101FB000C8E704EBC40000EBC410CE4901EB80007D
:101FC000007D401C04EBC40101EBC411C94A02EBC3
:101FD0008101087504EBC40000EBC410114601EB4D
:101FE0008000806900F5007004EBC40101EBC411AE
:101FF00002EB8101886104EBC40000EBC4101146C0
:1020000001EB8000806904EBC40101EBC41102EB19
:1020100081018968884202D84FF4007092E704EB8E
:10202000C40000EBC410B34901EB8000806904EBED
:10203000C40101EBC411AF4A02EB81018968401A67
:10204000C0F5007086B230467CE770B504460D4698
:10205000002004EBC40101EBC411A64A02F82100E0
:10206000A648006804EBC40101EBC41102EB810136
:10207000486004EBC40000EBC410114601EB800083
:10208000406804EBC40101EBC41102EB810108615B
:1020900004EBC40000EBC410114601EB80000069A2
:1020A000861E924800689249097806FB010004EBFD
:1020B000C40101EBC41102EB8101C86004EBC40050
:1020C00000EBC41002EB8000C1682846FFF790FCCB
:1020D00008B9002070BD012004EBC40101EBC4115C
:1020E000844A02EB81010875400204EBC40101EB54
:1020F000C41102EB81018861002004EBC40101EBF3
:10210000C41102EB8101C86104EBC40101EBC411ED
:1021100002EB810108626FF0004004EBC40101EBA7
:10212000C41102EB81018860012004EBC40101EBC2
:10213000C41102F8210000BFCCE72DE9F14F82B0B5
:10214000002001908146009000240026DFF8B0B105
:102150006948007850B96B48008801905846019949
:10216000FFF746FC68B90098BDE8FE8F59460E207F
:10217000FFF76BFF08B90098F6E74FF6FF7062496A
:1021800008804FF0000ACEE00BEB0905287808B96B
:102190000098E9E72878E5287ED04FF0010800266E
:1021A00000BF06F10800295C0298805D814201D0E1
:1021B0004FF00008701CC6B2B8F1000F01D0032E1A
:1021C000EFDBB8F1000F19D00024002600BF304625
:1021D000711CCEB22F5C302F09DB392F07DCA7F141
:1021E0003000C7B20A2000FB047084B201E04FF057
:1021F0000008B8F1000F01D0032EE8DBB8F1000FA2
:102200005DD0002C5BDDB4F57A7F58DC0098401C73
:1022100080B20090601E84B204EB44003B4911F888
:10222000200040F0010004EB4401384A02F821008C
:10223000687D04EB440102EB81014860287D04EBDA
:10224000440102EB8101496800EB012004EB4401E9
:1022500002EB81014860E87E04EB440102EB81015E
:10226000496800EB012004EB440102EB8101486066
:10227000A87E04EB440102EB8101496800EB0120D8
:1022800004EB440102EB81014860E97F04EB440068
:1022900002EB8000C17200E011E0A97F04EB440072
:1022A00002EB80008172697F04EB440002EB800046
:1022B0004172287F04EB440102EB8101087209F1AD
:1022C00020001FFA80F9B9F5007F28DB4FF00009E4
:1022D00009480078E0B90198401C019058460199DE
:1022E000FFF786FBD8B900983EE7000044000020C5
:1022F00034000020DC0200203000002050000020CC
:1023000030290020480000203A0000200000001082
:1023100059460E20FFF702FE08B9009824E70AF19B
:1023200001001FFA80FAFC4800888245FFF62CAFB6
:10233000009819E72DE9F74F82B081460C464FF01F
:10234000000A00260027DFF8D4B3002004EBC40104
:1023500001EBC411F24A02F82100F248007850B9AA
:10236000F148078839465846FFF742FB70B900200C
:1023700005B0BDE8F08F59460E20FFF766FE08B99C
:102380000020F5E74FF6FF70E34908804FF00008A2
:10239000F8E00BEB0A05287808B90020E8E7287870
:1023A000E5287DD001200190002600BFA85D19F826
:1023B0000610884205D019F806003F2801D00020F9
:1023C0000190701CC6B2019808B10B2EEEDB01988B
:1023D0000028E6D0012004EBC40101EBC411D04A6F
:1023E00002F82100687D04EBC40101EBC41102EB8B
:1023F00081014860287D04EBC40101EBC41102EBAC
:102400008101496800EB012004EBC40101EBC41118
:1024100002EB81014860E87E04EBC40101EBC411CA
:1024200002EB8101496800EB012004EBC40101EBE0
:10243000C41102EB81014860A87E04EBC40101EBEA
:10244000C41102EB8101496800EB012004EBC401D7
:1024500001EBC41102EB81014860E97F04EBC40089
:1024600000EBC41002EB8000C172A97F04EBC40032
:1024700000EBC41002EB80008172697F04EBC400A2
:1024800000EBC41002EB80004172287F04EBC40112
:1024900001EBC41102EB8101087204EBC40000E0FF
:1024A00051E000EBC410114601EB8000406804EBE2
:1024B000C40101EBC41102EB8101086104EBC4000B
:1024C00000EBC410114601EB80000069871E97489D
:1024D00000689749097807FB010004EBC40101EB90
:1024E000C41102EB8101C86004EBC40000EBC4100E
:1024F00002EB8000C1680498FFF77AFA08B900205F
:1025000036E7012004EBC40101EBC411844A02EB5D
:1025100081010875400204EBC40101EBC41102EB18
:1025200081018861002004EBC40101EBC41102EBBE
:102530008101C86104EBC40101EBC41102EB81010C
:102540000862404614E70AF120001FFA80FABAF543
:10255000007F13DB4FF0000A7248007838B97F1C07
:1025600039465846FFF744FA40B9002000E759467B
:102570000E20FFF7D3FC08B90020F9E608F10100AE
:102580001FFA80F8644800888045FFF602AF0020FB
:10259000EEE62DE9F04105460C46164600270120DF
:1025A00004EBC40101EBC4115D4A02F8210005EB04
:1025B0004500604901EB8000406804EBC40101EB79
:1025C000C41102EB8101486004EBC40000EBC410AD
:1025D000114601EB800005EB4501564A02EB8101F3
:1025E0008968816004EBC40000EBC4104C4901EB26
:1025F00080008068B0F5805F02D20020BDE8F081E5
:1026000004EBC40000EBC410454901EB80004068B6
:1026100004EBC40101EBC411414A02EB81010861E2
:1026200004EBC40000EBC410114601EB800000690C
:10263000871E3E4800683E49097807FB010004EB0D
:10264000C40101EBC41102EB8101C86004EBC400BA
:1026500000EBC41002EB8000C1683046FFF7DEF9E2
:1026600008B90020CAE704EBC40000EBC4102C49F1
:1026700001EB8000C068C01D04EBC40101EBC41174
:10268000274A02EB8101C860082004EBC40101EB7A
:10269000C41102EB81010875400204EBC40101EB97
:1026A000C41102EB81018861002004EBC40101EB3D
:1026B000C41102EB8101C86104EBC40101EBC41138
:1026C00002EB81010862012098E770B504460D46CF
:1026D00004EBC40000EBC410114901EB8000C06999
:1026E00070B91048007828B92046FFF75EFB38B96A
:1026F000002070BD2046FFF7A4FA08B90020F8E7D3
:1027000004EBC40000EBC410054901EB8000C06974
:1027100090B90020EDE700003A00002030290020A9
:10272000DC0200203000002048000020440000208F
:10273000340000200000001004EBC40000EBC410C3
:102740003E4901EB8000C06904EBC40101EBC411F8
:102750003A4A02EB8101C860002004EBC40101EB9E
:10276000C41102EB8101C86104EBC40000EBC4108A
:1027700002EB8000C1682846FFF750F908B9002035
:10278000B7E704EBC40000EBC4102C4901EB800058
:10279000C068C01D04EBC40101EBC411274A02EB61
:1027A0008101C86004EBC40000EBC410114601EBCA
:1027B0008000007D083004EBC40101EBC41102EB82
:1027C0008101087504EBC40000EBC410114601EB55
:1027D0008000806900F5805004EBC40101EBC41156
:1027E00002EB8101886104EBC40000EBC4101146C8
:1027F00001EB8000806904EBC40101EBC41102EB22
:1028000081018968884202D84FF4805071E704EB57
:10281000C40000EBC410094901EB8000806904EB9F
:10282000C40101EBC411054A02EB81018968401A19
:10283000C0F5805086B230465BE70000DC02002025
:10284000704700BFFEE700BFFEE700BFFEE700BF26
:10285000FEE770477047704710B500F031FE10BDBD
:1028600010B5FEF71DFF10BD10B5FEF76AFF10BDD5
:1028700010B500F090FF10BD10B500F08DFF10BD39
:1028800010B502F0DFFD10BD10B5012004F0D6FE3A
:1028900010B1012004F0E3FE10BD10B5022004F0D9
:1028A000CDFE10B1022004F0DAFE10BD10B50420F8
:1028B00004F0C4FE10B1042004F0D1FE10BD10B528
:1028C000082004F0BBFE10B1082004F0C8FE10BDC3
:1028D00010B5102004F0B2FE10B1102004F0BFFEBD
:1028E00010BD10B5202004F0A9FE10B1202004F086
:1028F000B6FE402004F0A2FE10B1402004F0AFFE6E
:10290000802004F09BFE10B1802004F0A8FE4FF45C
:10291000807004F093FE18B14FF4807004F09FFEB5
:102920004FF4007004F08AFE18B14FF4007004F008
:1029300096FE10BD10B54FF4806004F07FFE18B114
:102940004FF4806004F08BFE4FF4006004F076FEDC
:1029500018B14FF4006004F082FE4FF4805004F090
:102960006DFE18B14FF4805004F079FE4FF4005022
:1029700004F064FE18B14FF4005004F070FE4FF400
:10298000804004F05BFE18B14FF4804004F067FE15
:102990004FF4004004F052FE18B14FF4004004F030
:1029A0005EFE10BDFA4A116800BFF94A1268521A59
:1029B0008242FAD3704730B50546062D6AD2DFE869
:1029C00005F003172324503800240EE01020F149AD
:1029D00008806420FFF7E6FF1020EE49891E08807A
:1029E0009620FFF7DFFF601CC4B2032CEEDB52E041
:1029F0001020E84908804FF4FA60FFF7D3FF102059
:102A0000E449891E088046E000BF00240EE0102043
:102A1000E04908805020FFF7C5FF1020DD49891EDE
:102A200008806420FFF7BEFF601CC4B20A2CEEDBF6
:102A300031E000240EE01020D64908801920FFF76D
:102A4000B1FF1020D349891E08806420FFF7AAFF38
:102A5000601CC4B2032CEEDB4FF4FA70FFF7A2FF48
:102A600019E016E000240EE01020CA49088050202A
:102A7000FFF798FF1020C749891E08806420FFF7E0
:102A800091FF601CC4B2032CEEDB4FF47A70FFF7A9
:102A900089FFE7E700BF00BF30BD10B50820BD4982
:102AA0000880012008806420FFF77CFF00F05AFEB8
:102AB0000020B94908700520FFF77DFF0120B749C4
:102AC00008700121084604F005FE0020B349087093
:102AD000012003F0DDF900BF312003F0E0F9002808
:102AE000FAD0012003F04CFA00BF392003F0D7F9E7
:102AF0000028FAD0022003F06FFA00BF03F076FA44
:102B00000828FBD1A648007888B900F0FBFD0A2010
:102B1000FFF748FF01209F49891E08809E490870E1
:102B2000A048007818B108209A49891E088010BD75
:102B300000EB40019C4A12F82110012908D100EB5A
:102B4000800202EBC022994B03EB8202117105E077
:102B5000002100EB4002944B03F82210704710B59F
:102B6000002404E02046FFF7E3FF601CC4B2904855
:102B700000788442F6DB10BD0EB50021084604F053
:102B800003FE0121002004F0FFFD0221002004F0DB
:102B9000FBFD0321002004F0F7FD0421002004F0D8
:102BA000F3FD0521002004F0EFFD0621002004F0D4
:102BB000EBFD0721002004F0E7FD0821012004F0CF
:102BC000E3FD0921012004F0DFFD0A21012004F0CA
:102BD000DBFD0B21002004F0D7FD0C21002004F0C8
:102BE000D3FD0D21002004F0CFFD0E21002004F0C4
:102BF000CBFD0F21002004F0C7FD0F2001900198AC
:102C000040F0F0000190019840F47060019001984C
:102C100040F47040019000208DF8080010208DF8DD
:102C2000090001208DF80A0001A804F0A1FC06208B
:102C30008DF800000F208DF801008DF802000120B2
:102C40008DF80300684604F0BAF907208DF80000FB
:102C5000684604F0B4F908208DF80000684604F0D6
:102C6000AEF909208DF80000684604F0A8F90A20A2
:102C70008DF80000684604F0A2F917208DF80000D6
:102C8000684604F09CF928208DF80000684604F09E
:102C900096F90EBD1CB50121084603F061FA012129
:102CA000022003F05DFA00208DF8040002208DF868
:102CB0000500012000903F488078022802D18DF85D
:102CC000070002E001208DF8070069463A4804F049
:102CD000B1F8022000903748807D022802D18DF89B
:102CE000070002E001208DF807006946324804F031
:102CF000A1F8042000902F4890F82A00022802D161
:102D00008DF8070002E001208DF8070069462A4887
:102D100004F090F808200090264890F83E00022821
:102D200002D18DF8070002E001208DF80700694606
:102D3000214804F07FF8102000901E4890F85200BF
:102D4000022802D18DF8070002E001208DF807006B
:102D50006946194804F06EF820200090154890F854
:102D60006600022802D18DF8070002E001208DF8EC
:102D700007006946104804F05DF8402000900D48B7
:102D800090F87A00022819D18DF8070019E00000A8
:102D9000780000201A0802407500002087000020FB
:102DA0007300002077000020F82200201C2900205A
:102DB00084000020A02300200000024001208DF8A4
:102DC00007006946FE4804F035F880200090FD4871
:102DD00090F88E00022802D18DF8070002E0012051
:102DE0008DF807006946F64804F024F84FF40060B7
:102DF0000090F44890F8DE00022802D18DF8070018
:102E000002E001208DF807006946ED4804F012F851
:102E10004FF480500090EB4890F8F200022802D165
:102E20008DF8070002E001208DF807006946E448AC
:102E300004F000F84FF400500090E24890F80601CA
:102E4000022802D18DF8070002E001208DF807006A
:102E50006946DB4803F0EEFF4FF480400090D9480C
:102E600090F81A01022802D18DF8070002E0012033
:102E70008DF807006946D24803F0DCFF4FF40040AC
:102E80000090D04890F82E01022802D18DF807005A
:102E900002E001208DF807006946C94803F0CAFF27
:102EA00000208DF8040002208DF80500C00100907C
:102EB000C44890F8A200022802D18DF8070002E071
:102EC00001208DF807006946BF4803F0B3FF4FF4B7
:102ED00000700090BB4890F8B600022802D18DF82F
:102EE000070002E001208DF807006946B64803F0AC
:102EF000A1FF4FF480600090B24890F8CA00022809
:102F000002D18DF8070002E001208DF80700694624
:102F1000AD4803F08FFF01F09FFE1CBD08B54FF4D4
:102F2000A06004F047F831208DF8000003208DF8F0
:102F3000010000208DF8020001208DF80300684692
:102F400004F03DF83B208DF8000002208DF80100D0
:102F500000208DF8020001208DF80300684604F07F
:102F60002EF825208DF8000000208DF801008DF846
:102F7000020001208DF80300684604F020F82420A8
:102F80008DF8000001208DF8010000208DF802006E
:102F900001208DF80300684604F011F80F208DF829
:102FA000000001208DF8010000208DF802000120B2
:102FB0008DF80300684604F002F808BD7CB5FDF703
:102FC00024FA824800684FF47A72B0FBF2F1B1F152
:102FD000807F01D301201DE021F07F40401E4FF093
:102FE000E022506150170F22002807DA13071D0E48
:102FF000774B00F00F04241F1D5503E013071C0E30
:10300000744B1C5400BF00204FF0E0229061072059
:103010001061002008B100BFFEE70121042003F089
:103020009FF848F23000009001208DF80400002045
:103030008DF806008DF8070002208DF8050069461E
:10304000654803F0F7FE10206349183108802020FE
:103050000880800208800121022003F081F802200C
:10306000009000208DF8040001208DF80700022058
:103070008DF805006946544803F0DCFE012140202C
:1030800003F07FF8012004F01FFAFFF747FF7CBD33
:103090000027B846B946BA46BB46FFF78FFF642003
:1030A000FFF780FC00F0C4FE4C4D4D492868884273
:1030B00002D00420FFF77FFCFEF70EF849490870A4
:1030C0000846007880B9FEF7E1FC30B101F082F8E3
:1030D000D8B101204449087017E04448007840F016
:1030E00004004249087010E0FEF76BF8012806D092
:1030F0003E48007840F001003C49087005E03B483C
:10310000007840F0020039490870FFF7C3FD3848E5
:10311000007808B1FFF730FD02F058FA3348007824
:1031200020B934A0FFF709F833490880002406E0ED
:10313000002004EB4401314A02F82100641C0E2CEB
:10314000F6DB00240EE004EB84001E4901EB800056
:10315000C07830B10120A040294909880843284996
:103160000880641C102CEEDB2048007818B9002081
:10317000FFF721FC19E01D48007810F0010F03D083
:103180000120FFF718FC10E01848007810F0020F3B
:1031900003D00220FFF70FFC07E01448007810F07E
:1031A000040F02D00320FFF706FC02F07BFC0F485F
:1031B000007848BB00F0C2F901201249087024E0F1
:1031C00000000240A0230020000402400000002074
:1031D00018ED00E000E400E0000802400078FF1F66
:1031E000F0A55A0F7C00002074000020730000201E
:1031F000860000205741560082000020F82200205F
:1032000070000020750000200CE000F06EFA0A202B
:10321000FFF7C8FB0120B6490880B648007808B11E
:10322000082008800020B4490870B4490870B448E8
:103230000068B44908600020B349087017E1AE483F
:10324000007800EB4000B14911F8200001281FD19F
:10325000AA490870A848007800EB800101EBC02063
:10326000AB4901EB8000407900287AD00020A249C8
:10327000097801EB810202EBC121A54A02EB810131
:1032800048719D48007800F015FCA249088068E06C
:103290009948007800EB40009C4911F82000032871
:1032A0005FD100209449097801EB4101974A02F867
:1032B00021009148007800EB4000114601EB8000AE
:1032C000408800EB4000944911F8200010F0020FF4
:1032D00019D0894B1B7803EB430394460CEB830313
:1032E000B3F90420844B1B7803EB43030CEB8303FB
:1032F0005978814B1B7803EB43030CEB830358880D
:1033000002F041FA2DE07C48007800EB40007F4954
:1033100001EB80004078102823DA7748007800EB32
:10332000400001EB8000407800EB80007B4901EB1E
:1033300080004078022814D16F49097801EB4101DF
:10334000724A02EB8101487801F0ABF948B16A4951
:10335000097801EB41016D4A02EB8101487801F0E7
:10336000BAF965480078401CC0B2634908706C49DE
:103370000978884215DB00205F4908705F480078B3
:1033800078B100205D49087010205949891C0880D7
:10339000202008801920634908805948006859494D
:1033A000086061480068C01B052803D95E480768AB
:1033B00001F0DBFB01F002FD5B480068A0EB0900B7
:1033C0000F281DD95848D0F800900BF10100C0B269
:1033D0008346042814DD4FF0000B5448006886B281
:1033E000022020EA060646B15148007840B9012083
:1033F0004F49087001F000FC02E000204C490870C1
:1034000049480068A0EB080040F6B831884215D959
:103410004548D0F800803948007830B91020344948
:10342000891C088019203F49088042492868884241
:1034300004D0FFF794FB0420FFF7BDFA3A48006878
:10344000504514D03848D0F800A03B48007870B1FF
:103450002C48006858B12B480068401E2949086074
:1034600005D1FFF71AFB2648006826490860E6E602
:1034700030B50024FF2300211CE001EB4100234D67
:1034800015F8200008B9084630BD01EB41001F4D7A
:1034900015F8200001280BD101EB410005EB80005D
:1034A0008068214D2D682A1AA24201D914460B4684
:1034B000481CC1B21A4800788142DEDB1846E3E7B7
:1034C00019480068401C1849086016480088002800
:1034D0000CDD14480088401E0004000C11490880CF
:1034E00004D1102002490880202008807047000085
:1034F0001808024077000020850000207600002098
:10350000880000208C00002087000020F822002086
:103510001C2900208000002000000010A0230020B3
:10352000840000206C00002078000020100402407D
:1035300072000020F0A55A0F8600002010B586B05A
:103540000020D2490870002404E00020D04921F86E
:103550001400641CB4F5007FF7D3002002F0FDFDD9
:10356000012002F017FD00BF3B2002F098FC00286C
:10357000FAD00121062002F0F3FD0F200490012073
:103580008DF8140002208DF8150000208DF816002B
:103590008DF8170004A9BF4803F04CFC002201215C
:1035A000BC4803F0C7FC00220221BA4803F0C2FC69
:1035B00001220421B74803F0BDFC00220821B548D0
:1035C00003F0B8FC4020049002208DF814008DF820
:1035D000150000208DF816008DF8170004A9AD48DD
:1035E00003F028FC4FF43040049002208DF81400C2
:1035F0008DF8150000208DF816008DF8170004A92D
:10360000A54803F017FC05220F21A34803F09DFCF9
:1036100005220D21A04803F098FC05220C219E48AC
:1036200003F093FC052206219A4803F08EFC012149
:10363000880302F0C8FD4AF6444002900020ADF82D
:1036400002000120ADF804000020ADF80C004FF49A
:103650000070ADF80000ADF8060069468F4803F031
:10366000D3F8012271218D4803F039FA0121480570
:1036700002F076FD00208A49086088480C304860D6
:10368000834888604020C860C0000861002048610D
:103690004FF4806088614000C8618000086240117A
:1036A0004862400288620020C862086348638863F9
:1036B0007C4802F035FF7C497A4802F0E3FF0122A2
:1036C0000821784802F0F2FF77491031754802F07E
:1036D000D9FF01221021734802F0E8FF01220221E4
:1036E0006E4803F0F3F906B010BD10B500206F4925
:1036F000087001216B4802F04DFF0121674803F07B
:1037000052F910BD10B500206849087002F025FD7F
:10371000012002F03FFC00BF3B2002F0C0FB00286C
:10372000FAD0012271215D4803F0D9F95E495D4864
:1037300002F0A8FF012208215A4802F0B7FF5A49B7
:103740001031584802F09EFF01221021554802F026
:10375000ADFF0121534802F01DFF01214F4803F046
:1037600022F910BD10B5002208214E4802F09EFF3C
:10377000002210214B4802F099FF00227121474896
:1037800003F0ADF90021474802F004FF002143484F
:1037900003F009F910BD7047F8B5002743480078D9
:1037A00000B1F8BD01204149087038480078B8B12F
:1037B00000203649087000240EE004EB44003C4928
:1037C00011F82000022805D1012004EB4401384AF9
:1037D00002F82100601CC4B2364800788442ECDB59
:1037E0003149304802F033FF28B12F492D4802F00B
:1037F00049FF274D01272C4910312A4802F027FFA5
:1038000030B129491031274802F03CFF2A4D0127E9
:10381000BFB34FF480722946002004F055F800240D
:103820001EE004EB4400224911F82000012815D1C4
:103830002946204600F0DDF90646701C05D104EB50
:1038400044011B4A02F8210008E0B6F5807F05D04C
:10385000032004EB4401164A02F82100601CC4B2A4
:10386000144800788442DCDB4FF4807000901348E9
:10387000134A127830F912102B460422284603F01E
:10388000DCFF00200949087000BF8AE79200002091
:103890001C250020000802400004024000380040BF
:1038A000E024002070600240100000209100002001
:1038B000F8220020840000201C270020B8000020EF
:1038C000900000202DE9F84381460E461746384601
:1038D00001F02BFE06EB860101EBC621FE4A02EB4E
:1038E0008101C87006EB860000EBC620114601EB93
:1038F000800000F114052A4631464846FEF749FE8D
:1039000010B90020BDE8F8830422F4A1284603F092
:10391000F1FF08B10020F5E70422F2A105F108004B
:1039200003F0E8FF08B10020ECE70422EFA105F165
:103930000C0003F0DFFF08B10020E3E76C7D287D79
:1039400000EB042084B2012C01D00020DAE7EC7DEA
:10395000A87D00EB042084B2022C01D00020D1E726
:1039600095F8234095F8220000EB042084B2102C37
:1039700001D00020C6E7022006EB860101EBC6213C
:10398000D54A02EB8101487006EB860101EBC621A6
:1039900002EB81018870002006EB860101EBC62155
:1039A00002F82100287C00F11404B4F5FC7F01DD4D
:1039B0000020A7E728190422CEA103F09BFF08B13D
:1039C00000209FE7201D84B22046611C8CB2285C39
:1039D0008DF800002046611C8CB2285C8DF8010037
:1039E0002046611C8CB2285C8DF802002046611CC8
:1039F0008CB2285C8DF8030006EB860101EBC62132
:103A0000B54A02EB810149780098B0FBF1F006EB72
:103A1000860101EBC62102EB8101C86004EBD47181
:103A2000491006EB860202EBC622AB4B03EB820287
:103A30001181E11704EB91718910A4EB8101002938
:103A400001DD00205EE7C4F5805006EB860101EB46
:103A5000C621A14A02EB8101497890FBF1F806EBFF
:103A6000860000EBC620114601EB8000C0F81080F4
:103A7000002006EB860101EBC62102EB81010871F3
:103A8000012006EB860101EBC62102EB81014871A2
:103A9000002006EB860101EBC62102EB8101887153
:103AA000012006EB860101EBC62102EB8101C87102
:103AB00000BF27E72DE9F041044604EB840000EB4A
:103AC000C420854901EB8000807910B10020BDE859
:103AD000F08104EB840000EBC4207F4901EB8000FF
:103AE000C07900280BDD4FF48057002004EB8401DF
:103AF00001EBC421784A02EB8101C87109E000277B
:103B0000012004EB840101EBC421734A02EB810123
:103B1000C87104EB840000EBC4206F4901EB800006
:103B200000F1140808EB07012046FEF7CEFD05461C
:103B3000002D51DDB5F5805F08DA012004EB84012A
:103B400001EBC421644A02EB8101887105EBD57158
:103B50004E1004EB840000EBC4205F4901EB8000B1
:103B60000069304404EB840101EBC4215A4A02EBA2
:103B70008101086104EB840000EBC420114601EBD5
:103B80008000006904EB840101EBC42102EB810198
:103B9000C96888422BD904EB840000EBC42011468D
:103BA00001EB8000006904EB840101EBC42102EB0E
:103BB0008101C968401A361A04EB840000EBC42066
:103BC000114601EB8000C06804EB840101EBC421C5
:103BD00002EB810108610AE0012004EB840101EBA2
:103BE000C4213D4A02EB8101887100206FE730B2A9
:103BF0006DE72DE9F84304468946C84604EB840086
:103C000000EBC420344901EB8000143004EB840144
:103C100001EBC421304A02EB8101098900EB410725
:103C200004EB840000EBC420114601EB8000C06867
:103C300004EB840101EBC42102EB81010969451AFF
:103C4000B5F5807F01D94FF4807504EB840000EB5B
:103C5000C420214901EB80000079E8B104EB840025
:103C600000EBC42001EB8000C078002810DD04EBDD
:103C7000840000EBC42001EB8000C078401E04EB00
:103C8000840101EBC421144A02EB8101C8700AE0EF
:103C90004FF0FF30BDE8F883204601F0F5FF10B18A
:103CA0004FF0FF30F6E704EB840000EBC4200A4934
:103CB00001EB80000089C0F58056AE424FD304EB83
:103CC000840000EBC42001EB80000089C0F5006097
:103CD000A8421BD2012011E01C290020524946466F
:103CE000000000005741564500000000666D74203A
:103CF00000000000646174612000000004EB840196
:103D000001EBC421484A02EB8101487104EB8400B5
:103D100000EBC420444A02EB80000095C078434A7F
:103D200032F910103B460422384603F086FD2B463C
:103D300042463946404603F05FFD04EB840000EB49
:103D4000C420394901EB80000089284404EB840138
:103D500001EBC421344A02EB8101088149E004EB04
:103D6000840000EBC420304A02EB80000096C0784B
:103D70002E4A32F910103B460422384603F05DFD0E
:103D8000334642463946404603F036FD08EB4608C6
:103D900004EB840000EBC420234901EB800000F118
:103DA0001407AE1B04EB840000EBC4200A4602EBB0
:103DB00080000096C0781D4A32F910103B4604225C
:103DC000384603F03AFD334642463946404603F052
:103DD00013FD04EB840101EBC421134A02EB8101C2
:103DE0000E81012004EB840101EBC42102EB81016F
:103DF000487128B24EE770B504460D4604EB8400C6
:103E000000EBC420084901EB8000007950B9284636
:103E100001F08BFB04EB840101EBC421024A02EBAD
:103E20008101C87070BD00001C290020B80000206E
:103E300010B50E20FA4908700020FA490870FA49B6
:103E40000870FA4908704FF46140F94908604AF671
:103E50004440F8490880002001F077FB3220F64901
:103E600008600020F5490870F549086000243EE02C
:103E7000012004EB8401F34A02F8210004EB8401E1
:103E800002EB8101887004EB840102EB8101487030
:103E9000002004EB840102EB8101C870012004EBD7
:103EA000840102EB8101087104EB840102EB8101C2
:103EB0004871002004EB840102EB8101C88040F2CC
:103EC000E73004EB840102EB81010881002004EB60
:103ED000840102EB8101488104EB840102EB810142
:103EE000888104EB840102EB81010861641C102CC1
:103EF000BEDB10BDD4480088401C80B2D249088087
:103F0000D2490988884202DB0120D14908707047F4
:103F100070B502460023012400250026CC48007815
:103F200008B1304670BD42E0CA48C7490988405CC4
:103F3000202805D0C748C4490988405C092806D113
:103F4000FFF7D8FFC2480078F8B101252FE0C1483B
:103F5000BD490988405C2D2808D14FF0FF34FFF798
:103F6000C9FFBB48007880B1012520E0B948B649B7
:103F70000988405C302805DBB648B3490988405CB5
:103F8000392803DDFFF7B6FF012510E0B148AE493F
:103F90000988405C303803EB830100EB41030126C4
:103FA00000BFFFF7A7FFAA48007800B10125002D48
:103FB000BAD003FB04F010603046B3E718B50446EE
:103FC0006846FFF7A5FF00B918BD0098002809DB77
:103FD0000098032806DA04EB84019A4A02EB810177
:103FE000009888706846FFF793FF00B9ECE70098E7
:103FF000002807DD012004EB8401924A02EB8101D5
:10400000C87006E0002004EB84018E4A02EB8101B7
:10401000C8706846FFF77CFF00B9D5E70098002814
:1040200009DB0098032806DA04EB8401854A02EBD9
:104030008101009848706846FFF76AFF00B9C3E73E
:104040000098002807DD012004EB84017D4A02EB83
:104050008101087106E0002004EB8401794A02EB3B
:10406000810108716846FFF753FF00B9ACE700987B
:10407000002807DD012004EB8401724A02EB810174
:10408000487106E0002004EB84016E4A02EB8101D6
:1040900048716846FFF73CFF00B995E70098002893
:1040A00008DB00980C2805DA04EB8401654A0098C7
:1040B00002F821006846FFF72BFF00B984E700985B
:1040C00010F1140F0ADB00980A2807DC009800B2F0
:1040D00004EB84015B4A02EB810188816846FFF7AB
:1040E00017FF00B970E7009800280BDD0098B0F5C5
:1040F0007A7F07DA0098401E04EB8401514A02EBF4
:104100008101C8806846FFF703FF00B95CE70098AB
:10411000002815DD04EB84004A4901EB8000C088CB
:10412000009988420CDC0098B0F57A7F08DC009892
:10413000401E04EB8401434A02EB810108810BE03D
:1041400004EB84003F4901EB8000C08804EB84014C
:104150003C4A02EB8101088104EB8400394911F8E3
:10416000200002280BD104EB840001EB80000089C1
:1041700004EB8401334A02EB810148810BE004EB3C
:104180008400304901EB8000C08804EB84012D4A93
:1041900002EB8101488100BF16E700B5002212E062
:1041A0002C4829490988405C232801D1012208E0D4
:1041B000284825490988405C2A2802D10120244941
:1041C0000870FFF797FE1AB9214800780028E7D059
:1041D000104600BD1CB51F4A00211FA0FEF7AAF81B
:1041E0000090009808B900201CBD1E488068B0F5FA
:1041F000007F04D81B4800891449088009E01A4947
:104200000020FDF78BFE0090009800F500700F492C
:10421000088000200C4908800D4908702FE100003B
:1042200084000020B1000020B200002077000020B0
:10423000B40000207E0000209C00002086000020AA
:1042400088000020A0230020940000209800002077
:104250009A00002034EA01205741565452494752EF
:10426000494E4900DC02002034EC012000208DF88A
:1042700004008DF805008DF806008DF80700009009
:104280000FE0844884490988405C01A9009A885459
:10429000FFF730FE8148007800B105E00098401C2F
:1042A000009000980428ECDB00BF9DF8040054281F
:1042B00017D19DF80600492813D19DF8070047281B
:1042C0000FD16846FFF724FE58B10098002808DD9A
:1042D0000098102805DC0098401EC4B22046FFF765
:1042E0006DFE9DF80400422815D19DF80600552862
:1042F00011D19DF8070044280DD16846FFF708FE4C
:1043000048B10098002806DD0098B0F5E13F02DCD6
:104310006349009808609DF80400532810D19DF867
:1043200006004B280CD19DF80700522808D168469A
:10433000FFF7EEFD20B10098012801D1594908701E
:104340009DF804004D2819D19DF80600442815D188
:104350009DF80700492811D16846FFF7D9FD68B1DB
:10436000009810F0010F02D001204F49087000980A
:1043700010F0020F02D001204C4908709DF8040093
:104380004D2817D19DF80600452813D19DF8070048
:104390004C280FD16846FFF7BBFD58B100987F2825
:1043A00008DC4FF4FA61009848437F2190FBF1F05C
:1043B0003F4908809DF80400562811D19DF8060059
:1043C00049280DD19DF80700432809D16846FFF719
:1043D0009FFD28B100980E2802DA3649009808702F
:1043E0009DF80400562816D19DF806004C2812D1DD
:1043F0009DF807004D280ED16846FFF789FD50B1A2
:10440000009810F1460F06DB00980A2803DC00989C
:1044100000B201F09AF89DF80400442812D19DF8EA
:1044200006004E280ED19DF8070043280AD16846A1
:10443000FFF76EFD30B120490098884202DC1F4929
:10444000009808609DF804004C2818D19DF80600DB
:10445000572814D19DF80700522810D16846FFF75D
:1044600057FD60B10098B0F5616F08DC0120144978
:1044700008704FF47A710098484312490860FFF7BA
:104480008CFE20B10548007800283FF4EFAE0120F3
:10449000AAE6000034EA0120940000209A000020DF
:1044A000B400002077000020B1000020B2000020FE
:1044B000AE00002084000020A08601009C000020A7
:1044C000860000208800002070B50546002412E018
:1044D00004EB4400FA4911F82000012809D104EB4B
:1044E000440001EB80004078A84202D12046FEF74C
:1044F0001FFB601CC4B2F34800788442E8DB70BD47
:104500000246002111E001EB4100ED4B13F82000C1
:10451000012808D101EB410003EB80004078904274
:1045200001D101207047481CC1B2E64800788142A1
:10453000E9DB0020F6E730B500EB8003E24C04EB4A
:104540008303DB8800EB8004DF4D05EB84042489C2
:10455000A3420BD100EB80032C4604EB8303DB88E2
:1045600000EB800405EB8404638130BD00EB800325
:10457000D54C04EB83035989002223E04B1C99B2EC
:1045800000EB8003D04C04EB83031B898B4202DBDE
:10459000B1F57A7F05DB00EB8003CB4C04EB8303A2
:1045A000D98801EB4103C94C14F8233013F0010FF3
:1045B00006D000EB8003C44C04EB83035981D4E79D
:1045C000531C9AB2B2F57A7FD8DB00EB8003BE4C65
:1045D00004EB8303DB8800EB8004BB4D05EB840414
:1045E000638100BFC1E730B500EB8003B64C04EB3C
:1045F0008303DB8800EB8004B34D05EB840424893E
:10460000A3420BD100EB80032C4604EB8303DB8831
:1046100000EB800405EB8404638130BD00EB800374
:10462000A94C04EB83035989002229E031B900EB3E
:104630008003A54C04EB8303198910E04B1E9BB249
:10464000194600EB8004A04D05EB8404E488A342E6
:1046500005DA00EB80032C4604EB8303198901EB98
:1046600041039A4C14F8233013F0010F06D000EBED
:104670008003954C04EB83035981CEE7531C9AB217
:10468000B2F57A7FD2DB00EB80038F4C04EB83031F
:10469000DB8800EB80048C4D05EB8404638100BF54
:1046A000BBE70146002001228A40894B1B881A4241
:1046B00008D101EB8102844B03EB8202D2784AB12C
:1046C000012007E001EB81027F4B03EB8202D278ED
:1046D00002B9012070472DE9F0410446102C01DB9E
:1046E000BDE8F0812046FFF7DCFF064604EB8400BE
:1046F000754911F820000C2853D2DFE800F052066B
:10470000535455F3F2F1F0EFEEED04EB84006E49F3
:1047100001EB8000407801282CD106B9E0E704EBDA
:104720008400694901EB8000007970B904EB8400D2
:1047300001EB8000407920B12046FFF7E1FE20B177
:10474000CEE76448007800B1CAE704EB84005E4914
:1047500001EB8000407908B9FEF701FA04EB840010
:10476000594901EB8000B0F90C202146204601F0A8
:104770000AF816E004EB8400534901EB800040780E
:1047800002280ED156B104EB840001EB8000B0F991
:104790000C202146204600F0F6FF02E02046FFF7FD
:1047A00093FEDFE100BF00BF04EB8400464901EB4C
:1047B0008000458904EB840001EB800040780128EB
:1047C0007DD106B98CE704EB84003F4901EB800002
:1047D000007970B904EB840001EB8000407920B1CE
:1047E0002046FFF78DFE20B17AE73A48007800B105
:1047F00076E704EB8400344901EB8000407908B986
:10480000FEF7ADF904EB84002F4911F820000328CE
:1048100003D12046FFF7E7FE47E004EB84002A4976
:1048200011F82000022803D12046FFF784FE3CE067
:1048300004EB8400244901EB8000008904EB84012F
:10484000214A02EB8101C988401A401C1FFA80F8F6
:1048500000BF00BF012002F059FE0028FAD002F08C
:1048600042FE87B207FB08F04FF6FF71B0FBF1F094
:1048700004EB8401144A02EB8101C9884718B8B2DD
:1048800000EB4000114911F8200010F0010FE0D0BA
:1048900004EB8400114601EB80004089B842D8D077
:1048A00004EB840102EB81014F8104EB8401064B90
:1048B00003EB8101B1F90C2004EB840113E019E052
:1048C000F822002084000020A02300200000001017
:1048D000700000207600002035E128E123E11EE190
:1048E000C7E083E081E003EB81014889214600F0C5
:1048F0004AFF79E004EB8400CF4901EB8000407867
:10490000022871D1EEB3284601F011F8C8BB04EBC0
:104910008400C94911F82000032803D12046FFF77D
:1049200062FE49E004EB8400C34911F8200002282C
:1049300003D12046FFF7FFFD3EE004EB8400BE49B3
:1049400001EB8000008904EB8401BB4A02EB81018A
:10495000C988401A401C1FFA80F800BF00BF012020
:1049600002F0D4FD0028FAD002F0BDFD87B207FBAB
:1049700008F04FF6FF71B0FBF1F004EB8401AE4A92
:1049800000E029E002EB8101C9884718B8B200EBCA
:104990004000AA4911F8200010F0010FDED004EB0E
:1049A0008400114601EB80004089B842D6D004EB68
:1049B000840102EB81014F8104EB84019E4B03EBE8
:1049C0008101B1F90C2004EB840103EB81014889DA
:1049D000214600F0D8FE07E036B92046FFF790FDEB
:1049E00010B12046FFF770FDBCE000BFFEB104EB44
:1049F0008400914901EB8000C5880FE004EB84003E
:104A00008D4911F82000052803D1284600F05BFEEF
:104A100002E0284600F038FE681C85B204EB8400F2
:104A2000854901EB80000089A842E7DA20E004EB29
:104A30008400814901EB80004078022818D104EB02
:104A4000840011F82000052812D104EB840001EB4A
:104A50008000C58804E0284600F016FE681C85B278
:104A600004EB8400744901EB80000089A842F2DA6B
:104A700078E004EB8400704901EB80004078012865
:104A800016D106B92CE604EB84006B4901EB8000DB
:104A9000C58804E0284600F0DBFD681C85B204EB05
:104AA0008400654901EB80000089A842F2DA35E014
:104AB00004EB8400604901EB8000407802282DD18E
:104AC000BEB104EB840001EB8000C58808E02846F5
:104AD00000F0BEFD0121284600F044FF681C85B2AD
:104AE00004EB8400544901EB80000089A842EEDA0F
:104AF00014E004EB8400504901EB8000C58805E018
:104B00000021284600F02EFF681C85B204EB8400CB
:104B1000494901EB80000089A842F1DA22E00EB198
:104B200000F026FD1EE00EB100F036FD1AE04EB199
:104B300043480078401CC0B241490870092801DD93
:104B4000002008700EE066B13D480078002805DDC1
:104B50003B480078401E3A49087002E00920384975
:104B6000087000BF00BF00BFBAE52DE9F041012485
:104B70003448006986B24FF6FF0020EA0606324844
:104B8000006887B24FF4E060B843064300252FE089
:104B90002E49098886EA0100204224D005EB8500D1
:104BA000254901EB8000006929490968081A29494B
:104BB0000968884217D9264205D024480088204336
:104BC0002249088004E021480088A0431F4908804A
:104BD0001F48006805EB8501174A02EB8101086157
:104BE000E8B2FFF778FD4FF6FF7000EA44046D1C51
:104BF000102DCDDBBDE8F08110B5002416E004EBEC
:104C000044000E4911F8200010F0010F0CD020468E
:104C100000F08DFE10B1204600F01AFD0022102198
:104C2000204600F0B0FD04E0601C84B2B4F57A7F49
:104C3000E5DB00BF10BD0000A02300200000001035
:104C4000B00000200000024010040240700000206C
:104C5000780000209C00002000B587B0FC48007858
:104C600018B147F61220FB49086007220921FA48CB
:104C700002F06BF907220A21F74802F066F94FF4B7
:104C8000C060059002208DF8180000208DF81A00F1
:104C900001208DF81B0002208DF8190005A9EE48AF
:104CA00002F0C8F80121102001F09EFAE9480068DE
:104CB00001900020ADF80800ADF80A00ADF80C0036
:104CC000ADF810000C20ADF80E0001A9E34802F089
:104CD00031FA012240F22551E04802F069FB002040
:104CE000DF4908700121DD4802F0ACFA07B000BDD1
:104CF0002DE9F04107460E4616B90020BDE8F081C7
:104D0000D8480478002510E0785DD7490855601C24
:104D1000C0B20446402800DB0024D4480078844216
:104D200001D10020EAE7681CC5B2B542ECDBCD48F2
:104D30000470CF480078D0B90120CD490870CB4825
:104D400002780078401CC94B1870C748815CC34882
:104D500002F0A3FAC5480078402802DB0020C349CE
:104D60000870012240F22661BC4802F021FB0120BC
:104D7000C4E730B50246002000211AE001EB4103F0
:104D8000BC4C14F823309BB101EB410304EB8303CB
:104D90009D780346441CE0B2D55401EB4103B54C69
:104DA00004EB83035B881D120346441CE0B2D55418
:104DB000491CB14B1B789942E0DB30BD2DE9F04135
:104DC0008AB00020AD4908702FE3AD480188008803
:104DD000401CAB4A1080AB48445C10460088FF285A
:104DE00002DD00201146088099480078002876D11D
:104DF0009B48007840B9A148007828B9F02C42D1EE
:104E00000120974908703EE095480078012809D1B3
:104E1000AA2C03D102209249087034E00020904966
:104E2000087030E08E48007802280DD1052C07DB91
:104E3000202C05DA9448047003208949087022E088
:104E40000020874908701EE08548007802281ADD96
:104E50008D480078401E82490978884209DC552C2B
:104E600003D10120854908700DE000207C490870BD
:104E700009E07B4800787A490978491C784A117022
:104E8000C01E82490C547D48007800289CD0F02038
:104E90008DF80400AA208DF805007C4800780C28C5
:104EA0007AD2DFE800F079061D384A505AFEFDFC40
:104EB000FB4D19208DF8060081208DF80700042194
:104EC00001A8FFF715FF14217148FFF711FF5520C6
:104ED0008DF80400012101A8FFF70AFFA4E1AAE16F
:104EE00008208DF8060082208DF8070062480078BF
:104EF0008DF80800674800788DF80900654800883B
:104F000000128DF80A0055208DF80B00082101A829
:104F1000FFF7EEFE88E15D484478C578807800EBC5
:104F2000052085B2002D07DDB5F57A7F04DC681E0B
:104F300081B2204600F068FC76E1FDF710FE73E1D7
:104F400000F0A3FD70E151488578407800EB052022
:104F500085B228B200F0F9FA66E14C484478102C8A
:104F600002DB0AB0BDE8F08148488078032807DA00
:104F70004648807804EB8401474A02EB810188703F
:104F80004248C078002808DD012004EB8401424A31
:104F900002EB8101C87007E045E1002004EB8401C9
:104FA0003D4A02EB8101C87038480079032807DACE
:104FB0003648007904EB8401374A02EB81014870DE
:104FC00032484079002807DD012004EB8401324A91
:104FD00002EB8101087106E0002004EB84012E4AF7
:104FE00002EB8101087129488079002807DD012042
:104FF00004EB8401284A02EB8101487106E000209D
:1050000004EB8401244A02EB810148711F48C079F6
:105010000C2806DA1D48C07904EB84011E4A02F808
:1050200021001A48007A4FFA80F804EB84001A49EC
:1050300001EB8000A0F80C8004EB840001EB800001
:10504000B0F90C0010F1140F32DB04EB840029E0FE
:10505000B1000020B4000020000002400010014018
:10506000A0000020A300002054EC0120A400002098
:10507000A5000020F822002084000020A2000020CB
:10508000A800002094EC0120A100002034EC0120B5
:105090005400002082000020A0230020A1E094E022
:1050A0007BE065E001EB8000B0F90C000A2806DD2A
:1050B000002004EB8401FE4A02EB81018881FD4857
:1050C000857A407A00EB052085B2002D09DDB5F523
:1050D0007A7F06DA681E04EB8401F54A02EB81014F
:1050E000C880F448057BC07A00EB052085B2002D0E
:1050F00012DDB5F57A7F0FDA04EB8400EC4901EBA1
:105100008000C088A84207DC681E04EB8401E84ADE
:1051100002EB810108810BE004EB8400E44901EB20
:105120008000C08804EB8401E14A02EB8101088120
:1051300004EB8400DE4911F8200002280BD104EBB7
:10514000840001EB8000008904EB8401D84A02EB63
:10515000810148810BE004EB8400D54901EB80001C
:10516000C08804EB8401D24A02EB810148815BE0F4
:1051700083208DF8070002A8FFF7FBFD0446601DA1
:10518000C0B28DF80600552101AA201D1154601DE2
:10519000C1B201A8FFF7ACFD46E0C6480579C0786A
:1051A00000EB052085B22EB2C2488578407800EB2E
:1051B000052085B2002D07DDB5F57A7F04DC691E78
:1051C00088B2314600F0F1FB2EE0BA48407818B9B9
:1051D0000820B949088003E00820B749891E0880E3
:1051E00022E0B4480579C07800EB052085B22EB2E4
:1051F000B0488578407800EB052085B2AD488779C6
:10520000407900EB072087B2AA48C479002D09DD58
:10521000B5F57A7F06DC691E88B223463A463146E8
:1052200000F004FC00E000BF00BF0020A3490870AC
:10523000A3490870F9E014F0800F1CD004F0F000CE
:10524000802804D0902803D0B0280DD101E000BF01
:1052500000BF03209A4908700120984908709548BA
:1052600004709848047005E000209449087095493E
:10527000087000BFD9E091480078F8B991480078EB
:1052800000281BDD8F48007800F0F000802804D053
:10529000902803D0B0280FD101E000BF00BF032049
:1052A000874908700220854908708648007881493E
:1052B00008700846447000E000BFB6E07F48007800
:1052C000002873DD7D4801780078401C7B4A10700F
:1052D000784844541046007879490978884265DB5B
:1052E000012079490870002011460870744908703F
:1052F000704840786F49097801F00F0101EBC10255
:1053000002EB011100EB81057048007800EBC00151
:1053100001EB001005EB8005002D01DD681E85B254
:105320006448007800F0F000802838D0902802D03F
:10533000B02878D144E05F48807800281FDD6448B9
:10534000007808B1002609E05A48807800EB800018
:1053500080007F2190FBF1F0143806B25D48008890
:1053600028B93246FF21284600F00DFA16E05948C8
:1053700003883246FF21284600F090FA0EE0564896
:10538000008818B9284600F063F907E00123524865
:1053900002886FF03101284600F048FB44E04E4897
:1053A000008820B9284600F053F908E03DE00123C9
:1053B000494802886FF03101284600F037FB33E09E
:1053C0003C48407807280DD13A488078462110FBA8
:1053D00001F07F2190FBF1F0463806B2304600F034
:1053E000B4F81EE03348407849280BD13148807822
:1053F0004FF4FA6110FB01F07F2190FBF1F0354989
:1054000008800EE02B48407848280AD12948807847
:105410004FF4FA6110FB01F07F2190FBF1F02E496F
:10542000088001E0FFE700BF00BF2C4800882C493E
:105430000988884204D02448007800283FF4C5AC8D
:1054400000BF8EE570B540F22551264801F0EBFF14
:10545000012813D1234801F024FF05461F48048882
:105460002046611C8CB220490D54FF2C00DD002425
:105470001B480088844201D01848048040F226610D
:10548000184801F0D0FF012846D118480078184983
:105490000978884237D0154802780078401C134BB1
:1054A00018701448815C0F4801F0F7FE0F4823E0A4
:1054B000A023002034EC01201A080240A0000020A4
:1054C000A1000020AA000020A2000020B0000020BF
:1054D000B2000020AC000020AE000020A60000209A
:1054E000A80000200010014094EC0120A40000203E
:1054F000A300002054EC0120007840280CDB0020A1
:105500000649087008E0002240F22661044801F0D4
:105510004FFF00200349087070BD0000A400002068
:1055200000100140A50000207047014611F1460F10
:1055300001DC002070470A2901DB9F20FAE701F116
:105540004600C2B25006000EF4E700B5034613F160
:10555000460F01DA6FF045030A2B00DD0A231948D4
:105560000360008800B2FFF7E0FF1749087000BD34
:1055700000B514480068401C1249086008460068DD
:105580000A2801DD0A2008600E48008800B2FFF7F3
:10559000CCFF0D49087000BD00B50A480068401EE8
:1055A000084908600846006810F1460F02DA6FF0FB
:1055B000450008600348008800B2FFF7B6FF0249C3
:1055C000087000BDFC01002090000020002018E0C1
:1055D000002100EB4002FA4B03F8221000EB4002DE
:1055E00003EB820251804FF6FF7100EB400203EBA8
:1055F00082025160002100EB400203EB82029160C5
:10560000401CB0F57A7FE3DB704710B500EB400239
:10561000EB4B13F8222012F0010F18D059B100EB18
:10562000400213F8222042F0020200EB4003E44C57
:1056300004F823200BE000EB4002E14B13F822209A
:1056400022F0020200EB4003DD4C04F8232010BDE1
:1056500070B50546002412E004EB4400D94911F866
:105660002000012809D104EB440001EB80004088B0
:10567000A84202D12046FDF75BFA601CC4B2D248B2
:1056800000788442E8DB70BD10B50146002015E0CB
:1056900000EB4002CB4B13F82220022A0CD100EB86
:1056A000400203EB820252888A4205D1012200EBBC
:1056B0004003C44C04F82320421CD0B2C24A1278E2
:1056C0009042E5DB10BD10B50146002015E000EB6F
:1056D0004002BC4B13F82220012A0CD100EB4002FF
:1056E00003EB820252888A4205D1022200EB40037A
:1056F000B44C04F82320421CD0B2B34A1278904232
:10570000E5DB10BD2DE9F04105460E461746AF48D2
:105710000078B0B305EB4500A94911F8200010F05E
:10572000040F01D0BDE8F081FDF7A2FE0446A649B2
:105730000978884225DA204600F09FFA3A46214649
:105740002846FEF7BFF8E0B1022004EB44019D4A71
:1057500002F8210004EB4400114601EB8000458073
:1057600004EB440001EB8000467004EB440001EBC5
:10577000800087809648006804EB440102EB8101B9
:10578000886000BFCEE72DE9F04105460E4617467A
:105790008E480078B0B305EB4500894911F8200028
:1057A00010F0040F01D0BDE8F081FDF761FE044662
:1057B00085490978884225DA204600F05EFA3A46A3
:1057C00021462846FEF77EF8E0B1012004EB4401B3
:1057D0007C4A02F8210004EB4400114601EB8000F2
:1057E000458004EB440001EB8000467004EB44006C
:1057F00001EB800087807648006804EB440102EBEF
:105800008101886000BFCEE770B505460C46082DC3
:1058100041D2DFE805F004122A2E32363B1EFDF796
:105820009EF904EB4400664901EB8000B0F90220C8
:10583000FF212046FFF7A7FF2EE004EB440060495C
:1058400001EB8000B0F90220FF212046FFF79BFF0B
:1058500022E004EB44005A4901EB8000B0F9022039
:10586000FF212046FFF74EFF16E02046FFF72BFFF3
:1058700012E02046FFF708FF0EE02046FFF7E8FEA3
:105880000AE001212046FFF7C0FE05E00021204686
:10589000FFF7BBFE00E000BF00BF70BD2DE9F04187
:1058A00005460F461646984648480078E8B305EB8B
:1058B0004500434911F8200010F0040F01D0BDE865
:1058C000F081FDF7D5FD04463F49097888422CDA7E
:1058D000204600F0D2F96FF01D0221462846FDF760
:1058E000F1FF10B3002342463146204600F0EBF8AA
:1058F000012004EB4401334A02F8210004EB440088
:10590000114601EB8000458004EB440001EB800070
:10591000477004EB440001EB800086802C4800684F
:1059200004EB440102EB8101886000BFC7E7024637
:10593000002111E001EB4100224B13F82000012867
:1059400008D101EB410003EB80004088904201D177
:1059500001207047481CC1B21B4800788142E9DB36
:105960000020F6E710B500EB4002154B13F822209B
:1059700012F0010F18D059B100EB400213F82220A9
:1059800042F0040200EB40030D4C04F823200BE02E
:1059900000EB40020A4B13F8222022F0040200EB35
:1059A0004003074C04F8232010BD2DE9F0410746C1
:1059B0000E4616F1460F0DDA6FF045050FE00000B8
:1059C00000000010F8220020840000207500002054
:1059D000780000200A2E01DD0A2500E0354607EB9D
:1059E00047002C4901EB80004580002418E004EBBF
:1059F0004400294911F8200001280FD104EB44008C
:105A000001EB80004088B84208D104EB440001EB70
:105A10008000858029462046FEF7EDF9601CC4B25F
:105A20001E4800788442E2DBBDE8F0812DE9F047B2
:105A300007460D469046994615F1460F02DA6FF07B
:105A4000450604E00A2D01DD0A2600E02E4600246A
:105A500015E004EB4400104911F8200001280CD196
:105A600004EB440001EB80004088B84205D14B466E
:105A700042463146204600F026F8601CC4B2074872
:105A800000788442E5DBBDE8F08701200449087016
:105A90007047000000000010F82200208400002061
:105AA0009200002000200BE0002100EB4002E74BB9
:105AB00003F8221000EB400203EB8202D170401C7D
:105AC0000E28F1DB70472DE9F04704460F4690465B
:105AD0009946032098FBF0F01FFA80FABAF1000F04
